:020000040800F2
:10000000D0080020F93A0008890200088B02000895
:100010008F02000893020008970200080000000009
:100020000000000000000000000000009B0200082B
:100030009D020008000000009F020008A1020008C5
:10004000133B0008133B0008133B0008133B000858
:10005000133B0008133B0008133B0008133B000848
:10006000133B0008133B0008133B0008133B000838
:10007000133B0008133B0008133B0008133B000828
:10008000133B0008133B0008133B0008133B000818
:10009000133B0008133B0008133B0008133B000808
:1000A000133B0008133B0008133B0008133B0008F8
:1000B000133B0008133B0008133B0008133B0008E8
:1000C000133B0008133B0008133B0008133B0008D8
:1000D000133B00084B200008C5060008133B00082E
:1000E000133B0008133B0008133B0008133B0008B8
:1000F000133B0008133B0008133B0008133B0008A8
:10010000133B0008133B0008133B0008133B000897
:10011000133B0008133B0008133B0008133B000887
:10012000133B0008133B0008133B0008133B000877
:10013000DFF80CD004F0A2FE00480047650100087B
:10014000D008002070B504460D46E1B22F4804F0F7
:10015000A1F900BF2D48008800F080000028F9D0E8
:10016000204670BD08B52A4800680090002500248C
:1001700001F0CEFD4FF4A06004F054FA4FF4E130EA
:1001800001F030FE4FF4E13001F07FFE21A11F4865
:1001900001F037FF00F076F900F00AFA03E04FF4BF
:1001A000FA7001F0F2FD01F049FA0028F7D10121BF
:1001B000684601F0ADFA28E0681C80B20546B0F54B
:1001C000FA7F17DB18A1114801F01BFF1AA11D4887
:1001D00004F0F7FA1B4A1CA1204804F013FF1F4942
:1001E0001FA001F0BDFA22A11DA001F0B9FA00255F
:1001F00000F062F9032000F0BAF9044614B1204679
:1002000001F0D9FA0A2001F0C0FDD5E7003801401D
:100210003066000820486172647761726520696EFB
:100220006974204F4B0D0A00454D51585F5075625F
:100230006C6973680D0A000049443230323230373D
:10024000313000004C0000207B2253747564656ED1
:1002500074204944223A25737D0000004C0100209F
:100260006B657973303031736572766572000000AA
:1002700053747564656E74732031302072657369D0
:1002800073746F7273000000704700BFFEE700BF19
:10029000FEE700BFFEE700BFFEE77047704770470C
:1002A000704700000CB50020019000906C48006879
:1002B00040F480306A49086000BF6948006800F473
:1002C000003000900198401C0190009818B90198E6
:1002D000B0F5A06FF1D16248006800F4003010B1B1
:1002E0000120009001E0002000900098012843D1F7
:1002F0005C48006840F010005A49086008460068F1
:1003000020F0030008600846006840F00200086022
:10031000534840685249486008464068486008466B
:10032000406840F4806048600846406820F47C10D3
:1003300048600846406840F4E81048600846006895
:1003400040F08070086000BF4548006800F0007011
:100350000028F9D04248406820F003004049486036
:100360000846406840F00200486000BF3C484068D2
:1003700000F00C000828F9D10CBD10B5FFF792FF72
:1003800010BD10B53648006840F0010034490860DF
:1003900008464068344908403149486008460068CA
:1003A000324908402E4908600846006820F4802041
:1003B00008600846406820F4FE0048604FF41F00C3
:1003C0008860FFF7DAFF4FF000602949086010BD30
:1003D00010B5002100200022214B5B6803F00C01C6
:1003E00021B1042906D0082928D107E0214B224C4D
:1003F000236027E01F4B204C236023E0184B5B68F1
:1004000003F47010164B5B6803F48032022303EB95
:10041000904022B9194B4343174C23600DE0104B19
:100420005B6803F4003323B1144B4343124C236045
:1004300003E0104B4343104C236003E00D4B0E4C84
:10044000236000BF00BF064B5B68C3F303130C4C73
:10045000E15C094B1B68CB40074C236010BD0000DA
:1004600000100240002002400000FFF8FFFFF6FEEF
:1004700008ED00E000127A000000002000093D00B5
:100480000400002008B50121042003F063FE1020C1
:100490008DF8030003208DF802000220ADF8000063
:1004A0006946044803F09AFB0221024803F043FC2A
:1004B00008BD00000008014010B58021914804F0FB
:1004C0003EF900209049088010BD8F48008808B987
:1004D000012070478C4800888C490988884203D1E4
:1004E000002089490880F4E7874800888749088008
:1004F0000120EEE72DE9F04104460D46C8262046CE
:1005000004F044F987B23A462146814801F060FD83
:100510000FE0FFF7DAFF48B929467A4804F01AF9E4
:1005200020B1FFF7C9FF0020BDE8F0810A2001F0EB
:100530002CFC301EA6F10101CEB2EAD10120F3E776
:1005400030B589B004460D46FFF7B6FF2A4671A1C3
:1005500001A804F057FD73A101A8FFF7CBFF20B954
:100560002A4621466A4801F033FD09B030BD70B516
:100570000546002400BFFFF7A8FF80B96AA16148C3
:1005800004F0E8F8044654B13A21204604F0F4F8A7
:10059000044614B1641C204670BD0020FCE7052011
:1005A00001F0F3FB681E85B2002DE4DC0020F3E7C8
:1005B00008B50121082003F0CDFD10208DF80300BF
:1005C0008002ADF8000003208DF80200694658480B
:1005D00003F004FB00224FF48041554803F0AFFBC9
:1005E000FA2001F0D2FB01229103514803F0A7FB4E
:1005F0004FF4FA7001F0C9FBFFF75EFF4DA14F48C1
:1006000001F0FFFC03E04FF4FA7001F0BEFB4CA1D7
:100610004CA0FFF76FFF0028F5D14CA1474801F02F
:10062000F0FC42A14CA0FFF765FF4FF4FA7001F017
:10063000ACFB3EA14BA0FFF75DFF4FF4FA7001F059
:10064000A4FB4CA13D4801F0DCFC03E04FF4FA7040
:1006500001F09BFB3AA14AA0FFF74CFF0028F5D11F
:100660004BA1364801F0CDFC03E04FF4FA7001F0E5
:100670008CFB33A14AA0FFF73DFF0028F5D14CA128
:100680002E4801F0BEFC03E04FF4FA7001F07DFB50
:100690004AA14CA0FFF72EFF0028F5D151A1274811
:1006A00001F0AFFC03E04FF4FA7001F06EFB51A1D2
:1006B00052A0FFF71FFF0028F5D15BA11F4801F0F2
:1006C000A0FC08BD10B540F22551114803F066FFAB
:1006D000B0B10D480088802802D300200A49088064
:1006E0000B48001D0088C1B2074802880088401CE2
:1006F000054B1880034881542021054803F045FF2D
:1007000010BD00004C020020140000201600002044
:100710000044004041542B43495053454E443D252D
:10072000640D0A003E0000004950442C0000000007
:10073000000C0140302E2041540D0A0000380140C9
:100740004F4B000041540D0A00000000312E205292
:1007500053540D0A0000000041542B5253540D0A0B
:100760000000000041542B434950434C4F53450D6A
:100770000A000000322E2043574D4F44450D0A0019
:1007800041542B43574D4F44453D310D0A00000065
:10079000332E2041542B4357444843500D0A000048
:1007A00041542B4357444843503D312C310D0A00EE
:1007B000342E2043574A41500D0A0000474F542021
:1007C0004950000041542B43574A41503D22413982
:1007D0003273222C223132333435363738220D0A27
:1007E00000000000352E2043495053544152540D0F
:1007F0000A000000434F4E4E4543540041542B43E2
:10080000495053544152543D22544350222C2231DA
:1008100039322E3136382E3131342E323530222CC9
:10082000313838330D0A0000362E20455350383207
:10083000363620496E6974204F4B0D0A00000000C7
:1008400070B504460E460025206898B90120207333
:10085000304605F0A5F920602068E0B10020606016
:10086000A66003E00020216848556D1CA068A842DE
:10087000F8D810E00220207303E0002021684855DA
:100880006D1CA068A842F8D800206060A068B04243
:1008900001D20020206070BD10B50446207B0128E5
:1008A00002D1206805F054F9002020606060A0604B
:1008B000207310BD0246002301230DE002F07F00EB
:1008C0000870D2092AB1087840F080000870491CED
:1008D00001E0184670475B1C042BEFDD4FF0FF3042
:1008E000F8E7F0B504460D462646012300201060C7
:1008F000002114E0775C07F07F07106807FB030016
:100900001060705C00F0800008B9481CF0BDDB018D
:10091000B3F5001F02D36FF00100F7E7491CA942AD
:10092000E8DB4FF0FF30F1E7F8B50446FF27207809
:100930000511012D01DB0E2D01DD3846F8BD032D1B
:1009400024D1002000906A460421601CFFF7C9FFF3
:100950002044461C0098022803D3207800F00100B0
:1009600008B1FF20EAE77078317840EA0120801C66
:100970000099884201D9FF20E0E7F8A1B01C03F0FC
:10098000E9FE08B10F2700E0032700E02F463846B4
:10099000D4E72DE9FF4F83B082468B469146159CE4
:1009A0000025002002900F270190484603F0EEFE3C
:1009B0000FFA80F8B9F1000F03D1012007B0BDE8AC
:1009C000F08F08F10200384487B2109808B145F062
:1009D0000205129878B145F00405129803F0D6FE8E
:1009E000C0B20290139803F0D1FE01460298001D98
:1009F0000844384487B2119820B1012804D0022855
:100A000008D104E000BF07E045F00C0504E045F024
:100A1000140501E00220D1E700BF149808B145F0A9
:100A20002405BAF1000F02D0BBF1000F01D1032061
:100A3000C4E745F0C005504603F0A8FE06465846F8
:100A400003F0A4FE3044001D384487B239462046E6
:100A5000FFF7F6FE206808B90420AFE739462068A2
:100A600003F06DFE10216268501C606020688154A4
:100A7000D4E90023D118781FFFF71CFF00B20190C2
:100A80000198002804DA2046FFF706FF052095E7C5
:100A9000616801980844606000216268501C6060D1
:100AA0002068815404216268501C60602068815471
:100AB0004D216268501C6060206881545121626839
:100AC000501C60602068815454216268501C606032
:100AD000206881546268501C606020688154042141
:100AE0006268501C6060206881546168481C6060C6
:100AF000206845540698010A6268501C60602068AE
:100B000081540698C1B26268501C606020688154AC
:100B1000C8F307216268501C6060206881546268D5
:100B2000501C6060206800F80280D4E90012881828
:100B30004246494603F031FE60684044606005F07B
:100B40000400B8B30026139808B986A01390129831
:100B500003F01CFE86B2310A6268501C6060206897
:100B600081546268501C606020688654D4E9001289
:100B700088183246129903F010FE606830446060B5
:100B8000139803F003FE86B2310A6268501C60605D
:100B9000206881546268501C606020688654D4E9E3
:100BA000001288183246139903F0F7FD606830444C
:100BB000606000BF05F08000C8B1504603F0E6FD5C
:100BC00086B2310A6268501C606020688154626895
:100BD000501C606020688654D4E9001288183246A0
:100BE000514603F0DAFD60683044606000BF05F0F4
:100BF0004000C8B1584603F0C9FD86B2310A6268A8
:100C0000501C6060206881546268501C60602068DD
:100C10008654D4E9001288183246594603F0BDFDC7
:100C200060683044606000BF0020C7E610B504462D
:100C300002212046FFF704FE206808B9012010BDFC
:100C4000E0216268501C6060206881540021626865
:100C5000501C6060206881540020F0E7014648780D
:100C6000022801D001207047887810B188780128C7
:100C700001D1C878F7E7FF20F5E72DE9FF4F83B0F2
:100C8000834617469946139C0025002600200290B3
:100C900001908046BBF1000F03D1012007B0BDE8F1
:100CA000F08F00260AE00498805D232803D0049882
:100CB000805D2B2801D10220F0E7761C0498805D2E
:100CC0000028F0D148F03008119808B148F0010828
:100CD00006EB0900851C109820B1012804D00228D9
:100CE0000AD105E000BF09E048F00208AD1C05E0AC
:100CF00048F00408AD1C01E00320CFE700BF67B354
:100D00003878022821D14FF0000A00BF50460AF17E
:100D1000010A385C7D28F9D1AAF1030A0AF107001B
:100D200002900298A9EB000AE81CA0EB0A012046F9
:100D3000FFF786FD206808B90420AFE7EA1CA2EBA4
:100D40000A01206803F0FBFC1FE0691D2046FFF745
:100D500077FD206840B90420A0E70AE024637265AB
:100D60007100000000000000691D206803F0E7FC2E
:100D70000BE0691D2046FFF763FD206808B90420D9
:100D80008CE7691D206803F0DAFC6168481C60602C
:100D9000206800F80180D4E9000281182846FFF796
:100DA00089FD01900198002804DA2046FFF774FDC0
:100DB000052073E76168019808446060C6F3072165
:100DC0006268501C6060206881546268501C6060DA
:100DD00020688654D4E9001288183246049903F03A
:100DE000DCFC606830446060109860B14FEA1B2101
:100DF0006268501C6060206881546268501C6060AA
:100E0000206800F802B0C7B1387802280BD1D4E9C5
:100E1000001288183946029A03F078FC616802983B
:100E20000844606009E0D4E9001288184A4639464F
:100E300003F06CFC60684844606000202EE72DE9F8
:100E4000FF4107460D4690461E460A9C01200021A0
:100E5000CDE90001EB1C0A46FAA1CDE902040A2003
:100E6000FFF70BFF88B96168481C60602068465432
:100E7000C5F307216268501C606020688154626875
:100E8000501C60602068855403E0012004B0BDE878
:100E9000F0810020FAE72DE9F04F85B080460D463D
:100EA0009146012004900027002600244FF0000AFC
:100EB000404603F06BFC00F10D0B584604F070FE49
:100EC00007461FB9049805B0BDE8F08F4246DEA181
:100ED000384604F097F8384603F058FCC6B2F01DC7
:100EE00000EB050AAAEB050004F05AFE044624B9FB
:100EF000384604F02DFE0498E5E70220207000201B
:100F00006070A67032463946E01C03F0FFFB290EE4
:100F1000F01C2154C5F30741301D2154C5F30721AE
:100F2000701D2154B01D255401200021CDE9000180
:100F300053462246C3A1CDE902090A20FFF79DFED0
:100F400008B900200490384604F002FE204604F060
:100F5000FFFD0498B7E72DE9F84380460C46154697
:100F60001E462F2108F1060003F006FC074600206C
:100F7000009017B90120BDE8F8837F1C6A46042160
:100F800008F10100FFF7ADFC252004F009FE206008
:100F9000206808B90220EEE72521206803F0CFFB86
:100FA00024223946206803F0B1FB243700982C38FE
:100FB00030803188481C04F0F3FD2860286820B98F
:100FC000206804F0C5FD0320D5E73288511C28684D
:100FD00003F0B5FB32883946286803F097FB002000
:100FE000C9E72DE9FF5F07460D469046384603F0F6
:100FF000CDFB86B2284603F0C9FB1FFA80FA4FF0FA
:101000000009F01D04F0CCFD04461CB9012004B019
:10101000BDE8F09FF11D204603F091FB8EA0016812
:1010200021608088A08032463946204603F0B5FB17
:10103000284603F0ABFB83460120002100915B466C
:101040002A46CDE90208019121460A20FFF715FE44
:1010500010B94FF0000901E04FF00109204604F0FB
:1010600077FD4846D3E72DE9FF5F8046174699464E
:101070000E9C0026B246B3460025B8F1000F03D1FE
:10108000012004B0BDE8F09F0BE057F8250008B937
:101090000220F6E757F8250003F078FB0644681CA9
:1010A000C5B24D45F1DB09EB4900801C00EB060A97
:1010B0000AF105012046FFF7C3FB206808B90320A9
:1010C000DFE782216268501C606020688154D4E9A7
:1010D000000281185046FFF7EDFB0FFA80FBBBF1D1
:1010E000000F04DA2046FFF7D7FB0420C9E7606849
:1010F000584460604FEA18216268501C60602068A4
:1011000081546268501C6060206800F802800025ED
:1011100024E057F8250003F039FB0646C6F3072103
:101120006268501C6060206881546268501C606076
:1011300020688654D4E90023D01857F82510324689
:1011400003F02BFB6068304460600198C1B26268B4
:10115000501C606020688154681CC5B24D45D8DBC6
:1011600000208EE70146FF208A78A2B9CA78142AA7
:1011700011D10A7932B1012A05D0022A04D0802A7D
:1011800006D103E000BF00BF002003E0012001E022
:10119000022000BF00BF70472DE9F05F80460F4678
:1011A00091461C460026B246B3460025B8F1000F12
:1011B00002D10120BDE8F09F0BE057F8250008B9E7
:1011C0000220F7E757F8250003F0E0FA0644681C10
:1011D000C5B24D45F1DB022000EB490000EB060AE9
:1011E0000AF105012046FFF72BFB206808B9032010
:1011F000E0E7A2216268501C606020688154D4E955
:10120000000281185046FFF755FB0FFA80FBBBF137
:10121000000F04DA2046FFF73FFB0420CAE76068AE
:10122000584460604FEA18216268501C6060206872
:1012300081546268501C6060206800F802800025BC
:101240002CE00000246470007B2264735F696422D8
:101250003A222573227D000024637273702F0000F0
:1012600057F8250003F092FA0646C6F30721626894
:10127000501C6060206881546268501C6060206867
:101280008654D4E90023D01857F82510324603F0CD
:1012900084FA606830446060681CC5B24D45DFDB8D
:1012A000002087E7014601208A781AB9CA781E2AE9
:1012B00000D1002070472DE9FC5F81460D461446A1
:1012C0001E46DDE90C8B99F8000000F00F0A0020A3
:1012D00001900AF008000090CAF341008BF800006A
:1012E00001AA042109F10100FFF7FBFA4844471C59
:1012F0000198022802D30AF0010010B1FF20BDE8D6
:10130000FC9F7878397840EA012020802088801C72
:101310000199884201D9FF20F1E7AFF2C051B81C12
:1013200003F018FA08B10F20E9E79BF8000020B19C
:1013300001283DD0022877D13BE0009808B1FF207A
:10134000DDE72188481C04F02BFC2860286808B9D8
:10135000FF20D4E72288511C286803F0F0F9228886
:10136000B91C286803F0D2F90198801E2188401A20
:10137000A8F80000B8F80010481C04F011FC306018
:10138000306820B9286804F0E3FBFF20B7E7B8F81D
:101390000020511C306803F0D2F9B8F80020B4F8EE
:1013A00000C0BB1C0CEB0301306803F0AFF94FE049
:1013B00000BF2088801C0199884201D9FF209EE748
:1013C0002088C01C395C2088801C385C41EA0021E0
:1013D0000E9801800E9808B9FF2090E72188481CDC
:1013E00004F0DEFB2860286808B9FF2087E7228820
:1013F000511C286803F0A3F92288B91C286803F05F
:1014000085F90198001F2188401AA8F80000B8F853
:101410000010481C04F0C4FB3060306828B928680C
:1014200004F096FBFF206AE710E0B8F80020511C9A
:10143000306803F084F9B8F80020B4F800C03B1D10
:101440000CEB0301306803F061F901E0FF2056E77F
:1014500000BF2B21284603F08FF920B9232128460D
:1014600003F08AF908B1FF2049E7002047E770B58B
:1014700005460C4604212046FFF7E2F9206808B92A
:10148000012070BD40216268501C6060206881545A
:1014900002216268501C60602068815429126268D1
:1014A000501C6060206881546268501C6060206835
:1014B00085540020E5E701464878022801D0012044
:1014C0007047887820B9C8780A2801D10020F7E74A
:1014D0000120F5E770B505460C4604212046FFF7CC
:1014E000AFF9206808B9012070BD50216268501C16
:1014F00060602068815402216268501C606020682E
:10150000815429126268501C6060206881546268AE
:10151000501C6060206885540020E5E7014648784B
:10152000022801D001207047887820B9C8780A289D
:1015300001D10020F7E70120F5E770B505460C461C
:1015400004212046FFF77CF9206808B9012070BD0E
:1015500062216268501C60602068815402216268C8
:10156000501C60602068815429126268501C6060C1
:10157000206881546268501C606020688554002097
:10158000E5E702465078022801D0012070479078A4
:10159000B0EB112F05D1D078CBB2984201D1002009
:1015A000F4E70120F2E770B505460C460421204619
:1015B000FFF746F9206808B9012070BD7021626804
:1015C000501C60602068815402216268501C606079
:1015D0002068815429126268501C60602068815420
:1015E0006268501C6060206885540020E5E7014671
:1015F0004878022801D001207047887820B9C8783F
:101600000A2801D10020F7E70120F5E710B50446CC
:1016100002212046FFF714F9206808B9012010BD07
:10162000C0216268501C606020688154002162689B
:10163000501C6060206881540020F0E730B58BB00A
:1016400000200790089009900A900125DFA0E2A3EE
:10165000DEA2E4A10090EF4800F0D3FC07A800212F
:1016600002910391CDE9041000912B02D7A20191C0
:10167000D9A1D6A0FFF78DF9002842D1089A91B2DE
:101680000798FEF75DFFFA20FEF771FF0446002C75
:1016900033D02046FFF748F902282ED12046FFF725
:1016A000DDFA062823D2DFE800F003090E13181D27
:1016B000D9A1D84800F0A5FC00251DE0DBA1D54844
:1016C00000F09FFC18E0E0A1D24800F09AFC13E083
:1016D000E6A1D04800F095FC0EE0ECA1CD4800F06A
:1016E00090FC09E0F2A1CB4800F08BFC04E0FBA1E8
:1016F000C84800F086FC00BF00BF07A8FFF7CCF881
:1017000003E0FDA1C34800F07CFC28460BB030BDCF
:1017100070B586B004460D46002600200290039066
:101720000490059007E054F82620FCA1B94800F089
:1017300068FC701CC6B2AE42F5DB02A82B462246FE
:10174000022100901420FFF78EFC38B9039A91B261
:101750000298FEF7F5FE02A8FFF79EF806B070BDEE
:1017600070B588B005460C460020049005900690A0
:10177000079023462A46EFA1A64800F042FC2046E7
:1017800003F004F8064604A8012100220092334623
:10179000CDE901210390224629460A20FFF76DFA80
:1017A00038B9059A91B20498FEF7CAFE04A8FFF76B
:1017B00073F808B070BD2DE9F04F8FB0814600205E
:1017C0000B900C900D900E900A9009900890079045
:1017D000002606900025002482464846FFF7A4F81C
:1017E0000646F01E0D287CD2DFE800F01C626B87F5
:1017F000A3C8ACC8BAC8C8C8070007AB0AAA09A9D9
:101800004846FFF7A8FB05465DB9BDF81C000090EF
:10181000D0A18048DDE9092300F0F3FB0BA8FFF716
:101820003BF8AEE0D44806A907AA0AABCDE90021EF
:10183000029008AA09A94846FFF73DFD0546002D7C
:1018400035D1BDF81C000A99CDE90010BDF8203053
:10185000CAA17048099A00F0D4FB0A9801F070FA06
:10186000074647B900F008FC83465A46D2A16948AA
:1018700000F0C7FB18E0D5A1384601F067FE8046AE
:10188000D8F8140040B1D2A1624800F0BAFB02219E
:10189000D24802F050FA07E00221D04802F04DFA97
:1018A000CFA15C4800F0ADFB384600F047FC68E093
:1018B0004846FFF700FE18B9CBA1564800F0A1FB3F
:1018C0005FE04846FFF72AFEB0B9CFA1514800F0CB
:1018D00098FB0BA90A20FFF730FE68B9D0A14D484C
:1018E00000E04BE000F08DFB0C9A91B20B98FEF7F4
:1018F00027FE0BA8FEF7D0FF43E09F48018848462B
:10190000FFF73FFEA0B9CCA1424800F07AFB0BA93B
:101910000A20FFF748FE58B9CDA13E4800F071FB00
:101920000C9A91B20B98FEF70BFE0BA8FEF7B4FFD2
:1019300027E04846FFF75BFE18B9CCA1354800F018
:1019400060FB1EE04846FFF70DFC20B9CDA13148F1
:1019500000F057FB03E0D2A12E4800F052FB10E04C
:101960004846FFF79FFC20B9D4A12A4800F049FB64
:1019700003E0D9A1274800F044FB02E04FF0FF3517
:1019800000BF00BFFEF798FD681C10B90FB0BDE89E
:10199000F08F7D210A9802F0EFFE0446A4B1681C86
:1019A00090B1641C06E014F8012B50460AF1010ABC
:1019B00003A90A542078302802DB20783928F2DD88
:1019C00003A802F016FF82460F2E95E1757365722B
:1019D0006E616D650000000070617373776F7264F3
:1019E000000000004F6E654E65745F4465764C697B
:1019F0006E6B0D0A50524F49443A2025732C094111
:101A00005549463A2025732C0944455649443A2500
:101A1000730D0A0000380140546970733A09C1AC73
:101A2000BDD3B3C9B9A60D0A000000005741524EFC
:101A30003A09C1ACBDD3CAA7B0DCA3BAD0ADD2E9D4
:101A4000B4EDCEF30D0A00005741524E3A09C1AC35
:101A5000BDD3CAA7B0DCA3BAB7C7B7A8B5C4636C77
:101A600069656E7469640D0A000000005741524EAA
:101A70003A09C1ACBDD3CAA7B0DCA3BAB7FECEF158
:101A8000C6F7CAA7B0DC0D0A000000005741524E4D
:101A90003A09C1ACBDD3CAA7B0DCA3BAD3C3BBA7B4
:101AA000C3FBBBF2C3DCC2EBB4EDCEF30D0A000006
:101AB0005741524E3A09C1ACBDD3CAA7B0DCA3BA54
:101AC000B7C7B7A8C1B4BDD328B1C8C8E7746F6B96
:101AD000656EB7C7B7A8290D0A0000004552523AF3
:101AE00009C1ACBDD3CAA7B0DCA3BACEB4D6AAB4E0
:101AF000EDCEF30D0A0000005741524E3A094D5108
:101B000054545F5061636B6574436F6E6E656374AC
:101B1000204661696C65640D0A00000053756273AC
:101B2000637269626520546F7069633A2025730D92
:101B30000A0000005075626C69736820546F706908
:101B4000633A2025732C204D73673A2025730D0AC4
:101B500000000000636D6469643A2025732C2072D4
:101B600065713A2025732C207265715F6C656E3A41
:101B70002025640D0A00000018000020746F7069B1
:101B8000633A2025732C20746F7069635F6C656EF7
:101B90003A2025642C207061796C6F61643A2025AD
:101BA000732C207061796C6F61645F6C656E3A2094
:101BB00025640D0A000000004572726F7220626594
:101BC000666F7265203A5B25735D0A006C65640080
:101BD0003131313131313131000000000008014034
:101BE0003030303030300000546970733A094D5154
:101BF0005454205075626C6973682053656E64207C
:101C00004F4B0D0A00000000546970733A09526589
:101C100076205075626C6973685265630D0A000026
:101C2000546970733A0953656E64205075626C692B
:101C3000736852656C0D0A00546970733A095265F5
:101C400076205075626C69736852656C0D0A0000ED
:101C5000546970733A0953656E64205075626C69FB
:101C60007368436F6D700D0A000000005469707353
:101C70003A09526576205075626C697368436F6DDE
:101C8000700D0A00546970733A094D515454205331
:101C90007562736372696265204F4B0D0A00000024
:101CA000546970733A094D515454205375627363EB
:101CB00072696265204572720D0A00005469707382
:101CC0003A094D51545420556E53756273637269CD
:101CD0006265204F4B0D0A00546970733A094D51EB
:101CE000545420556E537562736372696265204562
:101CF00072720D0A0000000001D0032E05D1099870
:101D000003F026FF0A9803F023FF00BF3EE6000021
:101D100010B56FF0040002F0D4FC2E4800682E4984
:101D2000B0FBF1F02D4908700846007800EB400147
:101D3000C1EBC0104FF6FF7101EAC00028490880CE
:101D400010BD0146254A12784A434FF0E0235A61FC
:101D500000229A611A46126942F001021A6100BF1C
:101D60004FF0E022106900F001021AB100F4803255
:101D7000002AF5D04FF0E022126922F001024FF064
:101D8000E0231A6100229A6170470146144A1288C2
:101D90004A434FF0E0235A6100229A611A461269C1
:101DA00042F001021A6100BF4FF0E022106900F01A
:101DB00001021AB100F48032002AF5D04FF0E0227F
:101DC000126922F001024FF0E0231A6100229A61A9
:101DD000704700000000002000127A001A00002066
:101DE0001C00002010B586B004460121042002F03A
:101DF000B1F90121880302F0ADF918208DF8170020
:101E00004FF40070ADF8140003208DF8160005A9FA
:101E1000944801F0E3FE04208DF817000002ADF8AD
:101E2000140003208DF8160005A98E4801F0D6FE97
:101E300001940020ADF810000C20ADF80E00002039
:101E4000ADF80C00ADF80A00ADF8080001A986480D
:101E500002F027FA0121844802F0AFFA012240F291
:101E60002551814802F0B5FA25208DF800000120A7
:101E70008DF8030000208DF8010002208DF802008B
:101E8000684602F0D4FB06B010BD10B586B004461B
:101E90000121042002F05EF90121480402F067F9F3
:101EA00018208DF817000420ADF8140003208DF8D9
:101EB000160005A96B4801F091FE04208DF817006B
:101EC0000820ADF8140003208DF8160005A9654818
:101ED00001F084FE01940020ADF810000C20ADF854
:101EE0000E000020ADF80C00ADF80A00ADF80800B7
:101EF00001A95E4802F0D5F901215C4802F05DFAC3
:101F0000012240F22551594802F063FA26208DF84B
:101F1000000001208DF8030000208DF801008DF8ED
:101F20000200684602F083FB06B010BD10B586B013
:101F300004460121082002F00DF90121880402F075
:101F400016F918208DF817004FF48060ADF81400D2
:101F500003208DF8160005A9454801F03FFE042036
:101F60008DF817004002ADF8140003208DF816001C
:101F700005A93F4801F032FE01940020ADF81000A1
:101F80000C20ADF80E000020ADF80C00ADF80A00F2
:101F9000ADF8080001A9374802F083F9012135485E
:101FA00002F00BFA012240F22551324802F011FAF8
:101FB00027208DF8000001208DF8030000208DF807
:101FC00001008DF80200684602F031FB06B010BD3A
:101FD0002DE9F04107460C46154600260DE014F8A1
:101FE000011B384602F056FA00BF4021384602F085
:101FF000BFFA0028F9D0701C86B2AE42EFDBBDE814
:10200000F0810FB430B5CBB0054601AC50A80090BC
:102010004FF4947101A8009B4F9A03F007F8002039
:1020200000900BE014F8011B284602F033FA00BFC1
:102030004021284602F09CFA0028F9D02078002898
:10204000F0D14BB030BC5DF814FB10B540F2255117
:10205000054802F0A3FA18B12021034802F095FACE
:1020600010BD00000008014000380140004400405D
:10207000000C014000480040FE480068704770B501
:1020800004460D462CB9AC4201D0012070BD0020A1
:10209000FCE70DB90120F9E705E0207808B9002038
:1020A000F4E7641C6D1C207802F02AFB06462878B1
:1020B00002F026FB8642F0D0207802F021FB064693
:1020C000287802F01DFB301AE0E770B50446204680
:1020D00002F05CFB451C2846E74909688847061E54
:1020E00000D170BD2A462146304602F00FFB304633
:1020F000F7E730B9E149E04A1160E149E14A11608E
:102100007047016809B1016800E0DC49DA4A1160F2
:10211000416809B1416800E0D949DA4A116000BF5D
:10212000EEE710B52820D4490968884704461CB159
:102130002821204602F003FB204610BD70B504465E
:1021400022E02568A08900F4807020B9A06810B151
:10215000A068FFF7F3FFA08900F4807028B9206918
:1021600018B1C849206909688847A08900F400703F
:1021700028B9206A18B1C349206A096888472046EF
:10218000C049096888472C46002CDAD170BD2DE97A
:10219000F04F8BB083468A46002004460546002651
:1021A000B94F0021884689460990012008909AF885
:1021B00000002D2802D1B54F0AF1010A9AF800005B
:1021C000302801D10AF1010A9AF80000312822DBF7
:1021D0009AF8000039281EDC00BF1AF8011BA1F193
:1021E000300002F02CFC0022A94BCDE9060120466C
:1021F000294602F0B2FBCDE90401DDE9062302F035
:1022000005FB04460D469AF80000302803DB9AF8D7
:1022100000003928E1DD9AF800002E2830D19AF824
:10222000010030282CDB9AF80100392828DC0AF15B
:10223000010A00BF1AF8011BA1F1300002F0FFFBF8
:102240000022934BCDE906012046294602F085FB8A
:10225000CDE90401DDE9062302F0D8FA04460D4673
:102260000022894B4046494602F071FB8046894670
:102270009AF80000302803DB9AF800003928D9DDED
:102280009AF80000652803D09AF80000452823D169
:102290000AF1010A9AF800002B2802D10AF1010A7A
:1022A00008E09AF800002D2804D14FF0FF30089084
:1022B0000AF1010A08E01AF8010B3038099901EB1C
:1022C000810100EB410009909AF80000302803DBFF
:1022D0009AF800003928EEDDDDE9082101FB02F063
:1022E00002F0ADFB42464B46CDE9000102F08EFA0A
:1022F00002460B46CDE902010020654903F086FC49
:1023000022462B46CDE906013046394602F025FB30
:10231000CDE90401DDE9062302F01FFB04460D466A
:10232000CBE906452046294602F09AFBCBF814007B
:102330000320CBF80C0050460BB0BDE8F08F0146EF
:10234000491E41EA610141EAA10141EA211141EA44
:10235000212141EA2141481C70472DE9F041044602
:102360000E460CB1206810B90020BDE8F081A068CD
:1023700006446068B04203DBA16820680844F4E7C3
:102380003046FFF7DCFF074638463B490968884777
:1023900005463DB93B4920680968884700206060D0
:1023A0002060E2E725B12846D4E9001202F0AEF938
:1023B000344920680968884767602560A068284418
:1023C000D3E770B504460CB1206808B9002070BD91
:1023D000A16820684518284602F0D8F9A168084489
:1023E000F5E72DE9FC4782460E464FF00009DAE991
:1023F0000645002213462046294602F063FB13D10E
:102400002EB102213046FFF7A8FF814604E00220EA
:102410001949096888478146B9F1000F03D01DA00A
:102420000088A9F800009FE0DAF8140002F007FB2A
:10243000074622462B4602F08AFA21F0004100228C
:10244000154BCDE9000102F03DFB3ED8134A144B79
:102450002046294602F036FB37D80022114B204691
:10246000294602F047FB30D806B315213046FFF766
:1024700074FF19E02000002024000020A15B000868
:10248000515B0008280000200000F03F0000F0BF72
:1024900000002440300000000000B03C0000C0FFFD
:1024A000FFFFDF410000E0C1814604E01520FA494A
:1024B000096888478146B9F1000F55D0F7A1484611
:1024C000DAF8142002F09EFD4EE02EB14021304695
:1024D000FFF743FF814604E04020EF490968884741
:1024E0008146B9F1000F3FD02046294603F0C2FAD9
:1024F000074622462B4602F02AFA21F0004100222C
:10250000E74BCDE9000102F0DDFA0FD825F00041DC
:102510002746E44AE44B384602F0D4FA06D2224673
:102520002B46E2A1484602F06DFD1DE025F000417A
:102530002746E04AE04B384602F0C4FA07D325F0BC
:1025400000410022DD4B384602F0D4FA06D2224682
:102550002B46DBA1484602F055FD05E022462B46FE
:10256000D8A1484602F04EFD4846BDE8FC8701462A
:1025700000220878302806DB0878392803DC087840
:102580003038024415E00878412806DB08784628F0
:1025900003DC0878373802440BE00878612806DB52
:1025A0000878662803DC08785738024401E00020E8
:1025B00070471201491C0878302806DB0878392852
:1025C00003DC08783038024415E00878412806DB3F
:1025D0000878462803DC0878373802440BE008788E
:1025E000612806DB0878662803DC0878573802443F
:1025F00001E00020DCE71201491C0878302806DBE6
:102600000878392803DC08783038024415E0087867
:10261000412806DB0878462803DC0878373802446E
:102620000BE00878612806DB0878662803DC087868
:102630005738024401E00020BAE71201491C08782B
:10264000302806DB0878392803DC08783038024463
:1026500015E00878412806DB0878462803DC08786E
:10266000373802440BE00878612806DB08786628D2
:1026700003DC08785738024401E0002098E7104650
:1026800096E72DE9F05F8346884608F101040027AC
:1026900098F80000222805D08B48C0F80080002060
:1026A000BDE8F09F04E014F8011B5C2900D1641C14
:1026B0002078222804D0207810B1781C071EF2D18F
:1026C000781C7549096888478146B9F1000F01D126
:1026D0000020E5E708F101044D469EE020785C28E3
:1026E00004D014F8010B05F8010B96E0641C207867
:1026F000722818D006DC622809D066280BD06E2814
:102700007ED10CE0742812D07528F9D113E008208E
:1027100005F8010B7FE00C2005F8010B7BE00A2097
:1027200005F8010B77E00D2005F8010B73E0092097
:1027300005F8010B6FE0601CFFF719FF0646241D2A
:10274000B6F55C4F02D3B6F5604F00D306B962E030
:10275000B6F5584F1CD3B6F55C4F19D260785C289B
:1027600002D1A078752800D055E0E01CFFF7FFFEED
:102770008246A41DBAF55C4F02D3BAF5604F00D370
:1027800049E0C6F30901504661F39F2000F5803609
:102790000427802E01D2012708E0B6F5006F01D290
:1027A000022703E0B6F5803F00D203273D44012F06
:1027B00020D0022F15D0032F0AD0042F24D106F0E9
:1027C000BF0040F08001681E05460170B60900BFD9
:1027D00006F0BF0040F08001681E05460170B60992
:1027E00000BF06F0BF0040F08001681E0546017082
:1027F000B60900BF3548C05D3043C1B2681E00E075
:1028000005E00546017000BF00BF3D4403E02078AD
:1028100005F8010B00BF00BF641C2078222803D0FC
:10282000207800287FF45AAF0020287020782228D2
:1028300000D1641CCBF810900420CBF80C0020468B
:102840002EE72DE9F05F804689460027BB464546C6
:1028500011E02878002802DD2878202805DB287878
:10286000222802D028785C2801D1012000E0002035
:1028700040EA0B0B6D1C28780028EAD1BBF1000F51
:102880003ED1A5EB0807B9F1000F21D0F91C48464D
:10289000FFF763FD064620E02400002025640000C9
:1028A0000000B03C44F3C2E4E4E9634C252E3066FA
:1028B000000000008DEDB5A0F7C6B03E65CDCD415E
:1028C0002565000025660000200000203466000811
:1028D000F81CFD4909688847064616B90020BDE87E
:1028E000F09F3446222004F8010B4146204601F0B7
:1028F00068FF2220E0550021781C21543046EEE785
:10290000B8F1000F16D1B9F1000F05D003214846E8
:10291000FFF723FD064604E00320EB4909688847DA
:1029200006460EB90020DAE7E8A1304601F049FF7B
:102930003046D4E745460BE05146E5A001F01CFFC8
:1029400008B17F1C03E0BAF1200F00DA7F1D6D1C77
:1029500095F800A0BAF1000F02D0781C071EEBD149
:10296000B9F1000F05D0F91C4846FFF7F6FC064602
:1029700004E0F81CD4490968884706460EB90020CF
:10298000ADE734464546222004F8010B47E028789D
:102990001F280ADD2878222807D028785C2804D050
:1029A00015F8010B04F8010B39E05C2004F8010B69
:1029B00015F8011B8A460C2919D006DC082912D00B
:1029C000092920D00A2922D115E00D2917D0222962
:1029D00005D05C291BD15C2004F8010B1EE02220ED
:1029E00004F8010B1AE0622004F8010B16E06620DF
:1029F00004F8010B12E06E2004F8010B0EE07220C7
:102A000004F8010B0AE0742004F8010B06E05246BA
:102A1000B1A1204602F0F6FA641D00BF00BF28787D
:102A20000028B4D1222004F8010B002004F8010B87
:102A3000304654E770B504460D4629462069FFF735
:102A400000FF70BD00E0401C20B1017811B1017899
:102A50002029F8DD70472DE9F04706460C4620781E
:102A60007B2804D09E4804600020BDE8F087062043
:102A7000F060601CFFF7E6FF044620787D2801D156
:102A8000601CF2E7FFF74DFB0546B060B06808B97F
:102A90000020EAE72046FFF7D5FF8046414628465A
:102AA000FFF7EFFD0746FFF7CDFF04460CB9002006
:102AB000DBE7286928620020286120783A2803D0C3
:102AC000874804600020D0E7601CFFF7BBFF80460A
:102AD0004146284600F099F80746FFF7B3FF044641
:102AE0000CB90020C1E731E0FFF71BFB071E00D146
:102AF000BBE72F607D603D46601CFFF7A3FF81466A
:102B000049462846FFF7BDFD8046FFF79BFF044678
:102B10000CB90020A9E728692862002028612078E4
:102B20003A2803D06E48046000209EE7601CFFF73F
:102B300089FF81464946284600F067F88046FFF73E
:102B400081FF04460CB900208FE700BF20782C28B5
:102B5000CAD020787D2801D1601C86E760480460D7
:102B6000002082E72DE9F04705460C4620785B28D7
:102B700004D05B4804600020BDE8F0870520E860D1
:102B8000601CFFF75FFF044620785D2801D1601CC0
:102B9000F2E7FFF7C6FA0646A860A86808B9002061
:102BA000EAE72046FFF74EFF80464146304600F0F8
:102BB0002CF80746FFF746FF04460CB90020DBE778
:102BC00017E0FFF7AEFA071E00D1D5E737607E6049
:102BD0003E46601CFFF736FF81464946304600F00E
:102BE00014F88046FFF72EFF04460CB90020C3E717
:102BF00000BF20782C28E4D020785D2801D1601C0B
:102C0000BAE7374804600020B6E770B505460C46C1
:102C10000CB9002070BD042232A1204601F0DAFD7B
:102C200018B90220E860201DF4E705222FA12046F4
:102C300001F0D0FD18B90020E860601DEAE7042229
:102C40002CA1204601F0C6FD20B90120E860686192
:102C5000201DDFE72078222804D121462846FFF7EF
:102C600010FDD7E720782D2805D02078302807DB05
:102C70002078392804DC21462846FFF788FAC9E77E
:102C800020785B2804D121462846FFF76BFFC1E777
:102C900020787B2804D121462846FFF7DCFEB9E7DF
:102CA0000F4804600020B5E72DE9F04780460D4647
:102CB00016460024FFF735FA074600200849086049
:102CC000E7B9BDE8F08700002400002022220000C0
:102CD000225C080C0A0D09007525303478000000CC
:102CE000200000206E756C6C0000000066616C7343
:102CF0006500000074727565000000004046FFF733
:102D0000A1FE814649463846FFF77FFF04462CB9AD
:102D10003846FFF713FA0020BDE8F08766B1204679
:102D2000FFF790FE0446207830B13846FFF706FAE8
:102D3000FE4804600020EFE705B12C603846EBE761
:102D400010B50446002211462046FFF7ADFF10BD26
:102D50002DE9FF4F89B0884616461F46002008908F
:102D6000079006904FF0070A00250998D0F80890C0
:102D7000002002900190009004E00298401C029014
:102D8000D9F80090B9F1000FF7D10298002835D199
:102D900057B116B108F1040000E00320014638469F
:102DA000FFF7DBFA069009E016B108F1040100E034
:102DB00003210846DE49096888470690069818B935
:102DC00000200DB0BDE8F08F069C7B2004F8010BBD
:102DD00066B10A2004F8010B002503E0092004F87D
:102DE000010B6D1CA8F10100A842F7DC7D2004F85E
:102DF000010B002004F8010B0698E2E7002F77D0C2
:102E0000BD680EB1022000E0012082460AF10101F6
:102E10003846FFF7A2FA04460CB90020D1E77B2020
:102E200004F8010B16B10A2004F8010B00202070F1
:102E3000B8685044B8600998D0F8089008F10108C3
:102E400068E0B6B141463846FFF787FA04460CB948
:102E50000020B6E70020039005E0092004F8010BEC
:102E60000398401C039003984045F6DBB868404443
:102E7000B8603946D9F82000FFF7E3FC3846FFF781
:102E8000A0FAB8600EB1022000E00120824651464F
:102E90003846FFF762FA04460CB9002091E73A2061
:102EA00004F8010B16B1092004F8010BB86850446E
:102EB000B8603B4632464146484600F078FA38460C
:102EC000FFF77FFAB8600EB1012000E00020D9F8CA
:102ED000001009B1012100E0002100EB010A0AF114
:102EE00001013846FFF739FA044614B9002068E7B3
:102EF00034E0D9F8000010B12C2004F8010B16B111
:102F00000A2004F8010B00202070B8685044B86013
:102F1000D9F80090B9F1000F93D116B108F1010072
:102F200000E0022001463846FFF717FA04460CB9C4
:102F3000002046E74EB1002503E0092004F8010B0C
:102F40006D1CA8F10100A842F7DC7D2004F8010BFC
:102F50000020207038682844069005E10299880016
:102F60007349096888470890089808B9002028E73D
:102F7000029988006E49096888470790079828B920
:102F80006C4908980968884700201AE70298810070
:102F9000089801F0D4FB02988100079801F0CFFB5C
:102FA0000998D0F8089008F1010806B1C2442EE053
:102FB0000021D9F82000FFF744FC0490079941F85C
:102FC0002500002332464146484600F0F0F92946E4
:102FD0006D1C0590089A42F82100049898B1059854
:102FE00088B1059801F0D2FB8346049801F0CEFB2E
:102FF0000BEB0001891C16B108F1020000E0002073
:103000000844824401E001200190D9F80090B9F110
:10301000000FCDD1019820B950464549096888472D
:103020000690069808B901200190019818B3002570
:1030300014E0079850F8250028B1079951F82500A9
:103040003C4909688847089850F8250028B1089934
:1030500051F825003749096888476D1C0298854258
:10306000E7DB3449079809688847324908980968B6
:1030700088470020A5E67B21069801700698441C2D
:1030800016B10A2004F8010B00202070002548E04A
:103090005EB10020039005E0092004F8010B0398BD
:1030A000401C039003984045F6DB079951F8250032
:1030B00001F06CFB0090079850F825102046009A0C
:1030C00001F024FB009804443A2004F8010B16B1E7
:1030D000092004F8010B089850F82510204601F04B
:1030E00070FB089951F8250001F050FB0444029848
:1030F000401EA84202D02C2004F8010B16B10A2071
:1031000004F8010B00202070079951F825000949A7
:1031100009688847089951F82500064909688847D1
:103120006D1C02988542B3DB024905E020000020B7
:103130002400002028000020079809688847F749E4
:103140000898096888474EB1002503E0092004F873
:10315000010B6D1CA8F10100A842F7DC7D2004F8EA
:10316000010B002004F8010B06982AE62DE9FF4F19
:1031700085B092461E464FF0000B0520039005983F
:10318000D0F80880D946002500200290019003E085
:1031900009F10109D8F80080B8F1000FF8D1B9F1B0
:1031A000000F16D12EB103213046FFF7D6F8834623
:1031B00004E00320DA49096888478346BBF1000F21
:1031C00003D0D8A1584601F0FCFA584609B0BDE832
:1031D000F08F002E57D0B56801213046FFF7BDF8BB
:1031E00004460CB90020F1E75B202070B068401C59
:1031F000B0600598D0F808802EE033465246069914
:10320000491C404600F0D3F83046FFF7DAF8B060CA
:10321000D8F80000F0B1BAF1000F01D0022000E0B0
:10322000012003900399491C3046FFF796F80446A5
:103230000CB90020CAE72C2004F8010BBAF1000FEA
:1032400002D0202004F8010B00202070B168039800
:103250000844B060D8F80080B8F1000F02D002989E
:103260000028CAD002213046FFF777F804460CB98F
:103270000020ABE75D2004F8010B002020703068CF
:1032800000EB050B91E04FEA8900A54909688847E2
:1032900007460FB9002099E74FEA8901384601F047
:1032A0004EFA0598D0F8088021E00023524606998E
:1032B000491C404600F07BF8049029466D1C049898
:1032C00047F82100049870B1049801F05FFA801C5F
:1032D000BAF1000F01D0012100E000210144039860
:1032E0000844039001E001200290D8F80080B8F172
:1032F000000F02D002980028D7D0029820B9884940
:103300000398096888478346BBF1000F01D101206B
:103310000290029890B1002508E057F8250020B1EE
:1033200057F825007D49096888476D1C4D45F4DB39
:1033300038467A4909688847002047E75B208BF8C0
:1033400000000BF1010400202070002521E057F857
:10335000250001F01BFA019057F825102046019A2C
:1033600001F0D4F901980444A9F10100A8420AD05F
:103370002C2004F8010BBAF1000F02D0202004F831
:10338000010B0020207057F8250064490968884720
:103390006D1C4D45DBDB38466049096888475D2078
:1033A00004F8010B002004F8010B58460EE72DE944
:1033B000F04104460F4690461D46002614B90020F1
:1033C000BDE8F081002D49D0207B072845D2DFE8F9
:1033D00000F0101C04282E343C0005212846FEF77E
:1033E000BCFF064626B1AFF20471304601F0E9F9A0
:1033F00033E006212846FEF7B0FF064626B1AFF2BD
:103400001471304601F0DDF927E005212846FEF76A
:10341000A4FF064626B1AFF22471304601F0D1F97F
:103420001BE029462046FEF7DCFF064615E029464C
:103430002046FFF7FFFA06460FE02B464246394684
:103440002046FFF793FE064607E02B4642463946E4
:103450002046FFF77DFC064600BF37E0207B0728AB
:1034600033D2DFE800F00A1004161C222A00AFF263
:103470008C70FEF72AFE064627E0AFF29070FEF74A
:1034800024FE064621E0AFF29470FEF71EFE0646CB
:103490001BE000212046FEF7A4FF064615E00021B0
:1034A0002046FFF7C7FA06460FE00023424639469A
:1034B0002046FFF75BFE064607E0002342463946FA
:1034C0002046FFF745FC064600BF00BF304677E7C1
:1034D00010B504460023012219462046FFF767FF76
:1034E00010BD10B5044600231A4619462046FFF7C2
:1034F0005EFF10BDFEB505460C461646204608493F
:103500000968884700900194002002906B4632467B
:1035100000212846FFF74BFFFEBD000028000020D9
:10352000240000205B5D000001468A68002001E065
:10353000401C1268002AFBD170470246906801E0E7
:10354000491E006808B10029FADC704770B50546CD
:103550000E46AC6800E024682CB13146206AFEF7C4
:103560008EFD0028F7D1204670BD0160486070478D
:1035700070B50546FEF7D5FD04460CB9002070BDB8
:1035800028222946204601F0C1F800202062E06888
:1035900040F48070E0600020606020602046EEE72C
:1035A00070B505460E46AC6806B970BD0CB9AE6084
:1035B00009E000E0246814B120680028FAD13146FF
:1035C0002046FFF7D2FF00BFEFE770B506460D4675
:1035D000144604B970BD206A18B1FE49206A096812
:1035E00088472846FEF771FD206221463046FFF7E6
:1035F000D7FF00BFEEE770B506460D46144604B986
:1036000070BDA08900F4007028B9206A18B1F14992
:10361000206A096888472562E06840F40070E0602D
:1036200021463046FFF7BCFF00BFE9E770B505460D
:103630000C462046FFF79CFF064631462846FFF71A
:10364000AFFF70BD2DE9F04105460E4614462046F9
:10365000FFF78EFF07463A4631462846FFF7B5FF8B
:10366000BDE8F08110B502460B46916801E009689B
:103670005B1E09B1002BFADC09B9002010BD4868B7
:1036800010B1D1E900042060086810B1D1E9004010
:1036900060609068884201D10868906000200860EE
:1036A00048600846EAE770B504460D4629462046BC
:1036B000FFF7D8FF0646FEF741FD70BD2DE9F0414A
:1036C00005460F460026AC6801E0761C24682CB144
:1036D0003946206AFEF7D3FC0028F6D12CB13146DA
:1036E0002846FFF7BFFFBDE8F0810020FBE770B57B
:1036F00004460D4629462046FFF7E0FF0646FEF742
:103700001DFD70BD2DE9F04106460F461446B56813
:1037100001E02D687F1E0DB1002FFADC2DB9214686
:103720003046FFF73DFFBDE8F081256068686060C6
:103730006C60B068A84201D1B46001E060680460C8
:1037400000BFF0E72DE9F04106460F461446B56884
:1037500001E02D687F1E0DB1002FFADC0DB9BDE828
:10376000F0812868206068686060206808B120687F
:103770004460B068A84201D1B46001E060680460B0
:103780000020686028602846FEF7D8FC00BFE6E706
:103790002DE9F04105460E4617464FF00008AC688B
:1037A00002E008F1010824682CB13146206AFEF7D6
:1037B00066FC0028F5D144B13046FEF786FC38623D
:1037C0003A4641462846FFF7BDFFBDE8F08110B5F7
:1037D000FEF7A7FC04460CB10220E060204610BDB5
:1037E00010B5FEF79EFC04460CB10120E0602046B7
:1037F00010BD10B5FEF795FC04460CB10020E0604A
:10380000204610BD70B50546FEF78BFC044624B17A
:103810000DB1012000E00020E060204670BD70B5D1
:1038200005460E46FEF77DFC044644B10320E060E9
:10383000C4E906562846314601F012F96061204677
:1038400070BD70B50546FEF76CFC04462CB1042033
:10385000E0602846FEF739FC2061204670BD10B5B7
:10386000FEF75FFC04460CB10520E060204610BD69
:1038700010B5FEF756FC04460CB10620E060204669
:1038800010BD2DE9F05F81468A460025AB46FFF763
:10389000E6FF0646002410E059F8240001F0CFF8B6
:1038A0000746FFF7BCFF05460CB9B56003E02946A3
:1038B0005846FFF75AFEAB46641C0EB15445EBDB8D
:1038C0003046BDE8F09F2DE9F05F81468A4600252D
:1038D000AB46FFF7C4FF0646002410E059F8240069
:1038E00001F0DDF80746FFF79AFF05460CB9B56011
:1038F00003E029465846FFF738FEAB46641C0EB17C
:103900005445EBDB3046BDE8F09F2DE9F047074614
:1039100088460025A946FFF7A2FF0646002410E0CE
:1039200007EBC400D0E900211046FFF778FF0546F9
:103930000CB9B56003E029464846FFF716FEA946D4
:10394000641C0EB14445EBDB3046BDE8F0872DE941
:10395000F047074688460025A946FFF780FF064640
:1039600000240DE057F82400FFF76BFF05460CB963
:10397000B56003E029464846FFF7F7FDA946641CF9
:103980000EB14445EEDB3046BDE8F0872DE9F04747
:10399000054689464FF0000815B90020BDE8F087BC
:1039A000FEF7BFFB04460CB90020F7E7E86820F4F7
:1039B0008070E06068696061D5E90601C4E90601CC
:1039C000286968B12869FEF780FB2061206938B951
:1039D000204601E028000020FEF7B0FB0020DDE7D4
:1039E000286A50B1286AFEF770FB2062206A20B96D
:1039F0002046FEF7A3FB0020D0E7B9F1000F01D16C
:103A00002046CBE7AF6816E001213846FFF7BEFF3E
:103A1000064626B92046FEF791FB0020BEE7B8F126
:103A2000000F05D0C8F80060C6F80480B04601E079
:103A3000A660B0463F68002FE6D12046AEE70146BB
:103A400055E00278202A01D1401C50E00278092A72
:103A500001D1401C4BE002780D2A01D1401C46E008
:103A600002780A2A01D1401C41E002782F2A0BD1AA
:103A700042782F2A08D100E0401C0278002A36D074
:103A800002780A2A33D0F7E702782F2A0ED142783B
:103A90002A2A0BD100E0401C02782AB102782A2A97
:103AA000F9D142782F2AF6D1801C20E00278222A10
:103AB00019D110F8012B01F8012B0AE002785C2AD9
:103AC00003D110F8012B01F8012B10F8012B01F89C
:103AD000012B027812B10278222AEFD110F8012BC3
:103AE00001F8012B03E010F8012B01F8012B0278FB
:103AF000002AA6D10A70704706488047064800474A
:103B0000FEE7FEE7FEE7FEE7FEE7FEE7FEE7FEE78D
:103B1000FEE7FEE7830300083101000810B5044604
:103B2000CC48844208D10121042000F02DFB002163
:103B3000042000F029FB46E0C748844208D1012157
:103B4000082000F021FB0021082000F01DFB3AE0D6
:103B5000C248844208D10121102000F015FB002149
:103B6000102000F011FB2EE0BD48844208D1012155
:103B7000202000F009FB0021202000F005FB22E0BE
:103B8000B848844208D10121402000F0FDFA00210C
:103B9000402000F0F9FA16E0B348844208D1012130
:103BA000802000F0F1FA0021802000F0EDFA0AE018
:103BB000AE48844207D10121801500F0E5FA0021CA
:103BC000A01500F0E1FA10BD10B50121084600F083
:103BD000DBFA0021012000F0D7FA10BD2DE9F041F9
:103BE000024600250026002000230024002791F82B
:103BF00003C00CF00F0591F803C00CF0100CBCF1E1
:103C0000000F03D091F802C04CEA050591F800C0FE
:103C1000BCF1000F31D0146800202BE04FF0010CF4
:103C20000CFA00F3B1F800C00CEA03069E4220D162
:103C300083004FF00F0C0CFA03F7BC4305FA03FCAA
:103C40004CEA040491F803C0BCF1280F06D14FF0F0
:103C5000010C0CFA00FCC2F814C00AE091F803C091
:103C6000BCF1480F05D14FF0010C0CFA00FCC2F872
:103C700010C0401C0828D1D31460B1F800C0BCF1BA
:103C8000FF0F34DD546800202EE000F1080C4FF0E7
:103C9000010808FA0CF3B1F800C00CEA03069E42D2
:103CA00021D183004FF00F0C0CFA03F7BC4305FA47
:103CB00003FC4CEA040491F803C0BCF1280F05D1C1
:103CC00000F1080C08FA0CF8C2F8148091F803C04F
:103CD000BCF1480F07D100F1080C4FF0010808FAB9
:103CE0000CF8C2F81080401C0828CED35460BDE800
:103CF000F0814FF6FF710180022181700421C170B3
:103D000070470246002093680B400BB1012000E091
:103D1000002070470146886880B270470246002044
:103D2000D3680B400BB1012000E000207047014632
:103D3000C86880B2704701617047416170470AB13D
:103D4000016100E041617047C16070474FF480320B
:103D50000A43826181618261826982697047024699
:103D60000020434B18684FF68073184040EA021059
:103D700008433F4B186070473E49C8617047F0B533
:103D80000A46002300240021002500F00046B6F179
:103D9000004F02D1364EF16901E0354E7168C0F333
:103DA000034583B200F44016B6F5401F08D121F058
:103DB00070612F4E766826F070662D4F7E6012E09F
:103DC00000F48016B6F5801F06D1032606FA05F426
:103DD000A14341F0706106E0460D360103FA06F694
:103DE000B14341F0706122B1460D360103FA06F687
:103DF000314300F00046B6F1004F02D11C4EF16194
:103E000001E01B4E7160F0BD30B500228B071C0F26
:103E10000F2303FA04F2164B08338C1053F82430A6
:103E20009343134C08348D1044F8253023468C10EE
:103E300053F824308C07240F00FA04F423430C4C6D
:103E400008348D1044F8253030BD0A49DC31086053
:103E50007047000000080140000C014000100140C4
:103E60000014014000180140001C014000200140E6
:103E70000000014000002042DF48006840F00100DF
:103E8000DD49086008464068DC490840DA49486076
:103E900008460068DA490840D749086008460068C3
:103EA00020F4802008600846406820F4FE00486046
:103EB0004FF41F0088607047CF49096821F48031B2
:103EC000CD4A11601146096821F480211160B0F5D6
:103ED000803F03D0B0F5802F0ED106E0C6490968B7
:103EE00041F48031C44A116007E0C349096841F4D4
:103EF000A021C14A116000E000BF00BF704710B5AB
:103F000001460022002300204A11012A02D1BA4CA6
:103F1000236806E0022A02D1B74C236A01E0B64CBE
:103F2000636A01F01F02012494401C400CB101207F
:103F300000E0002010BD38B50020009000240025CE
:103F400000BF3120FFF7DBFF05460098401C0090C2
:103F50000098B0F5A06F01D0002DF2D03120FFF70E
:103F6000CEFF08B1012400E00024204638BD014600
:103F70000020A14A106820F0F80040EAC10010605B
:103F80007047A04908607047024600209A4B586865
:103F900020F47C1042EA01031843974B58607047A5
:103FA00098490866704701460020934A506820F0FF
:103FB00003000843506070478F48406800F00C00D1
:103FC0007047014600208C4A506820F0F0000843FA
:103FD0005060704701460020874A506820F4E06036
:103FE00008435060704701460020834A506820F41F
:103FF000605040EAC1005060704729B17E4A527A51
:1040000002437D4B5A7204E07B4A527A82437A4BD8
:104010005A7270477B49D8310860704701460020CA
:10402000754A506820F440400843506070470021B2
:10403000714A20321170704A82F82010012802D093
:1040400004280AD104E001216B4A2032117005E0F6
:104050000521694A2032117000E000BF00BF70479F
:104060006949086070476449096A0143624A1162FC
:104070007047654944390860704730B50021002217
:10408000002400235C4D6D6805F00C0121B104296A
:1040900005D0082923D105E05C4D056022E05B4D89
:1040A00005601FE0544D6D6805F47012524D6D6847
:1040B00005F48034022505EB92421CB9544D55435A
:1040C00005600BE04C4D6D6805F400351DB1504D99
:1040D0005543056002E04D4D5543056002E04B4DF0
:1040E000056000BF00BF444D6D6805F0F00109098F
:1040F000484D6B5C0568DD4045603F4D6D6805F4DB
:10410000E061090A434D6B5C4568DD4085603A4DCE
:104110006D6805F46051C90A3E4D6B5C4568DD4031
:10412000C560354D6D6805F44041890B3A4D6B5CB7
:10413000C568B5FBF3F5056130BD29B12E4A52695A
:1041400002432D4B5A6104E02B4A526982432A4BA9
:104150005A61704729B1284A92690243264B9A61F5
:1041600004E0254A92698243234B9A61704729B142
:10417000214AD2690243204BDA6104E01E4AD26927
:1041800082431D4BDA61704729B11B4AD268024352
:10419000194BDA6004E0184AD2688243164BDA60A1
:1041A000704729B1144A12690243134B1A6104E0A3
:1041B000114A12698243104B1A6170471249403903
:1041C000086070470F49C86470470B49C871704751
:1041D0000948406A40F080700749486270470146CC
:1041E0000020054A92680A400AB1012000E0002040
:1041F0007047014988727047001002400000FFF8C4
:10420000FFFFF6FE000042428004424200127A00A4
:1042100000093D002C0000203C00002010B50446A1
:10422000FB48844209D101218803FFF7ADFF00213B
:104230004FF48040FFF7A8FF32E0F648844209D1EE
:1042400001214804FFF7ADFF00214FF40030FFF7D4
:10425000A8FF25E0F048844209D101218804FFF736
:10426000A0FF00214FF48020FFF79BFF18E0EB48F0
:10427000844209D10121C804FFF793FF00214FF4C4
:104280000020FFF78EFF0BE0E548844208D10121B2
:104290000805FFF786FF00214FF48010FFF781FF2C
:1042A00010BD2DE9F04786B005460E460024A24613
:1042B00000BFA1460027B08900B100BF2F462C8A5D
:1042C0004CF6FF700440F08804432C82AC894EF613
:1042D000F3100440B08831890843718908430443CE
:1042E000AC81AC8A4FF6FF400440B0890443AC82F5
:1042F00001A8FFF7C2FEC648874202D1DDF810A030
:1043000001E0DDF80CA0A88900F4004040B10AEB00
:10431000CA0000EB0A1031684900B0FBF1F807E071
:104320000AEBCA0000EB0A1031688900B0FBF1F813
:104330006420B8FBF0F004012009642101FB10891E
:10434000A88900F4004040B1322000EBC900B0FB66
:10435000F1F000F00700044308E0322000EB091000
:104360006421B0FBF1F000F00F0004432C8106B093
:10437000BDE8F0874FF41651016000218180C180B3
:1043800001810C21418100218181704710B50246D5
:104390000020108A4FF2FF0318400B884C882343FB
:1043A0008C882343CC8823431843108210BD0021FE
:1043B000018041808180C180704721B1828942F4AF
:1043C0000052828104E082894DF6FF731A40828197
:1043D0007047F0B50346002400260025002040F673
:1043E0006A17B94200D100BF1846C1F3421401F068
:1043F0001F06012707FA06F5012C01D10C3004E055
:10440000022C01D1103000E014301AB107682F439C
:10441000076002E00768AF430760F0BD1AB1838A06
:104420000B43838202E0838A8B4383827047028A34
:104430004FF6F0731A400282028A0A4302827047E2
:1044400082894FF2FF731A40828182890A438281F6
:10445000704721B1828942F00202828104E08289A0
:104460004FF6FD731A4082817047028A4FF6DF7360
:104470001A400282028A0A430282704721B1028AEC
:1044800042F48042028204E0028A4BF6FF731A4033
:1044900002827047C1F30802828070470146888813
:1044A000C0F308007047818941F0010181817047A4
:1044B000028BD2B20283028B42EA0122028370474E
:1044C000028B02F47F420283028B0A43028370470D
:1044D00021B1828A42F02002828204E0828A4FF671
:1044E000DF731A408282704721B1828A42F0100243
:1044F000828204E0828A4FF6EF731A40828270470C
:1045000021B1828A42F00802828204E0828A4FF658
:10451000F7731A408282704721B1828942F40042C7
:10452000828103E08289C2F30E028281704721B149
:10453000828A42F40062828204E0828A4FF2FF7330
:104540001A4082827047828A4FF6FB731A40828239
:10455000828A0A438282704721B1828A42F0020233
:10456000828204E0828A4FF6FD731A40828270478D
:1045700002460020B1F5007F00D100BF13880B4038
:104580000BB1012000E00020704701F40072B2F589
:10459000007F00D100BFCA430280704770B5024659
:1045A000002400230025002040F66A16B14200D105
:1045B00000BFC1F3421501F01F03012606FA03F301
:1045C000012D02D19689334006E0022D02D1168AD0
:1045D000334001E0968A33400C12012606FA04F4B7
:1045E0001688344013B10CB1012000E0002070BDEA
:1045F00010B50022002340F66A14A14200D100BF8A
:104600000A1201249440A3B2DC43048010BD0000D0
:10461000003801400044004000480040004C004089
:104620000050004031490143314A1160704770B574
:10463000002100230F22C47804B32D4C246804F415
:10464000E064C4F5E064210AC1F10403CA4044787F
:1046500004FA03F18478144021430901254C0678BB
:10466000A155047804F01F050124AC4005786D11B4
:10467000AD0005F1E025C5F8004109E0047804F03B
:104680001F050124AC401C4D0678761145F82640E4
:1046900070BD1A4A0A400243154B1B1F1A6070472F
:1046A00039B1134A121D12680243114B1B1D1A60C7
:1046B00006E00F4A121D126882430D4B1B1D1A6043
:1046C0007047042808D14FF0E021096941F0040146
:1046D0004FF0E022116107E04FF0E021096921F07D
:1046E00004014FF0E0221161704700000000FA055C
:1046F0000CED00E000E400E080E100E080FFFF1F3F
:10470000A0F14101192900D82030704740EA010387
:104710009B0703D009E008C9121F08C0042AFAD277
:1047200003E011F8013B00F8013B521EF9D270473B
:10473000D2B201E000F8012B491EFBD270470022E3
:10474000F6E710B513460A4604461946FFF7F0FF90
:10475000204610BD30B505462A460B4612F8010B1F
:1047600013F8014B08B1A042F8D01CB1002802D0C8
:104770006D1CF1E7284630BDCAB2401E10F8011F7B
:104780008A4202D00029F9D100207047421C10F85B
:10479000011B0029FBD1801A704710B5044600E0C8
:1047A000401C0378002BFBD100E0401C521E04D3B8
:1047B00011F8013B0370002BF7D100210170204656
:1047C00010BD034611F8012B00F8012B002AF9D186
:1047D0001846704730B505460020034600E05B1CD4
:1047E000934205D2EC5CC85C201A01D1002CF6D1B2
:1047F00030BD70B5064600F043FC046805460A2249
:104800000021304600F006FA2C6070BD2DE9FE4F05
:10481000804681EA0300C00F0C46009021F0004161
:1048200023F00045B8EB0200A94105D240462146DD
:1048300090461C460B46024623F00040104347D0EA
:10484000270DC7F30A00C3F30A510290401A0190E2
:1048500040286BDAC3F3130040F4801B00989246A3
:1048600020B10023D2EB030A63EB0B0B01985946EE
:10487000C0F14002504600F09CF906460D465046F5
:104880005946019A00F0B4F910EB08006141002488
:1048900087EA115284EAE7731A4340D0009A62B360
:1048A000019A012A4FEA075215DC001B61EB020155
:1048B0004FF0004202EA0752CDE90042001C41F5E8
:1048C000801132462B4600F0ECF903B0BDE8F08FC2
:1048D00040462146F9E7001B61EB0201001C41F54F
:1048E000801300185B412018A2F5001747EB030165
:1048F00040EAD570B6196D4111E06D084FEA3606F1
:1049000045EAC0754FEA0752001B61EB0201001C2B
:1049100041F5801149084FEA3000001951413246F3
:104920002B4603B0BDE8F04F00F0ACB9009801226F
:1049300040000023D0EB020263EBE07300982146B5
:104940004FEAE074B8EB000061EB0401E9E783F0A3
:1049500000435BE781F0004158E72DE9FE4F81EA13
:10496000030404F0004421F0004100944FF0000BD8
:1049700023F0004350EA01045ED052EA03045BD006
:10498000C3F30A54C1F30A552C44A4F2F33401943E
:10499000A0FB0254C1F3130141F48011C3F31303CC
:1049A00043F4801301FB024400FB034E840A970A80
:1049B00044EA815447EA8357A4FB076802958D0AAD
:1049C00005FB07854FEA932C04FB0C542705029D39
:1049D0004FEA065847EA1637B5EB08056EEB070CA9
:1049E000870E920E47EA811742EA8312A7FB020163
:1049F000B6EB0B0164EB00042B0D43EA0C335E189D
:104A000044EB1C50DA465146E7FB0201C5F31304A0
:104A10004FEA0B3343EA14534FEA0432019C43EA52
:104A20000603A4F10C040294009CCDE900B400F04C
:104A300038F903B0BDE8F08F00200146F9E70EB564
:104A4000C10F80EAE0700844CA07002140F23343F6
:104A50008DE80E000A460B4600F023F903B000BDB6
:104A600070B5C1F30A5201F000450024C1F31301EF
:104A700040F2FF3341F480119A4201DA002070BD08
:104A800040F233439A42A2F2334203DC524200F036
:104A90009FF800E090402C43F1D0404270BD00F000
:104AA000004230F000400AD0C10D01F56071C0F342
:104AB000160042EA0151C208400711437047002026
:104AC0000146704730B5041E71F1000404DB4FF05D
:104AD0000044404264EB0101141E73F1000405DB45
:104AE0001C464FF00043524263EB04038B4208BF65
:104AF000824230BD30B5041E71F1000404DB4FF07A
:104B00000044404264EB0101141E73F1000405DB14
:104B10001C464FF00043524263EB0403994208BF26
:104B2000904230BD30B50B460146002020220124C2
:104B300009E021FA02F59D4205D303FA02F5491B6B
:104B400004FA02F52844151EA2F10102F1DC30BD81
:104B50002DE9F05F0546002092469B4688460646B2
:104B6000814640241BE0284641464746224600F045
:104B70002FF853465A46C01A914110D31146184691
:104B8000224600F016F82D1A67EB01084F46224620
:104B90000120002100F00DF817EB00094E41201E06
:104BA000A4F10104DFDC484631462A464346BDE80D
:104BB000F09F202A04DB203A00FA02F1002070471F
:104BC0009140C2F1200320FA03F31943904070474B
:104BD000202A04DB203A21FA02F00021704721FA52
:104BE00002F3D040C2F120029140084319467047B9
:104BF000202A06DBCB17203A41FA02F043EAE073A1
:104C000006E041FA02F3D040C2F12002914008438D
:104C1000194670472DE9F04791460F4680460446F5
:104C2000002614F8015B2DB100F03AF90068405DF0
:104C3000C007F6D12B2D02D02D2D18D0641E4A4668
:104C40003946204600F030F927B13968A14201D138
:104C5000C7F8008071054FF002040BD540420028D0
:104C600003DD00F00DFA0460A007BDE8F08746F40C
:104C70008066E4E70028F8DA00F002FA04606FF0DA
:104C80000040F2E710B5141E73F1000408DA401C6E
:104C900041F1000192185B411A4301D120F001005B
:104CA00010BD2DE9F04D92469B4611B1B1FA81F24B
:104CB00002E0B0FA80F220329046FFF77AFF044615
:104CC0000F4640EA0A0041EA0B0153465A460843A0
:104CD00013D0114653EA010019D0C8F140025046E2
:104CE000FFF776FF05460E46504659464246FFF707
:104CF00060FF084305D0012004E020463946BDE8A6
:104D0000F08D0020054346EAE0762C4337430A98AD
:104D10006305E40AA0EB08000022FD0A44EA4754B8
:104D20000A3002D500200146E9E701051019694162
:104D3000DDE9084500196941BDE8F04DA2E72DE91C
:104D4000F04D81EA030404F0004B21F000451446C5
:104D50004FF0000A23F0004150EA050220D054EA47
:104D600001021DD0C5F30A570246C5F31303C1F370
:104D70001300C1F30A5640F4801543F48013A7EBE7
:104D80000608101BD64608F2FD3873EB050002D367
:104D900008F1010801E092185B41B8F1000F03DA55
:104DA00000200146BDE8F08D00204FF4801106463A
:104DB00084460EE0171B73EB050705D3121B63EB4C
:104DC000050306434CEA010C49084FEA30009218EB
:104DD0005B4150EA0107EDD152EA030012D082EAAA
:104DE000040083EA0501084305D0101BAB4106D23D
:104DF0000122002306E000224FF0004302E06FF0A2
:104E0000010253101AEB06004CEB085110EB0A009C
:104E100041EB0B01BDE8F04DFFF734BF70B521F059
:104E2000004303430CD0C1F30A550024D5EB04051D
:104E300064EB0403D617AD1AB34102DB0020014630
:104E400070BD201841EB025170BDC1F30A52C1F38D
:104E5000130140F2FF3341F480119A4202DA00203C
:104E60000146704740F233439A42A2F2334202DCD9
:104E70005242FFF7ADBEFFF79CBE0000064C074D47
:104E800006E0E06840F0010394E80700984710341A
:104E9000AC42F6D3FBF750F9606700088067000862
:104EA00000487047546700082DE9F05F824600789B
:104EB000002715468B460AF10104B946302801D077
:104EC0009DB113E014F8010B0127782803D058286E
:104ED00001D045B10AE00DB1102D07D100271025F2
:104EE00014F8010B02E0082500E00A250026B04670
:104EF0000EE005FB080005FB06F1012701EB10465B
:104F00001FFA80F8B6F5803F00D3B94614F8010BBC
:104F1000294600F069F80028EBDABBF1000F05D054
:104F20000FB1641E00E05446CBF80040B9F1000F09
:104F300006D000F0A5F802210160C81EBDE8F09F70
:104F400048EA0640FAE72DE9F04D00231A461B1AFD
:104F50008A4103DB00200146BDE8F08DC1F30A520F
:104F6000C1F3130141F480154FF0000BD10702D1BA
:104F700000186D41521E0027044640F2FF113846CA
:104F800001EB620A3E468046024600204FF4801143
:104F9000FFF71EFEC2197141BB1846EB0100B4EBCE
:104FA000030C75EB000C04D3E41A65EB00051746FF
:104FB0000E46241908F101006D4180463428E3DDD6
:104FC000F91946EB0600091BA84103D24FF0FF3246
:104FD000134601E0002213461BEB070046EB0A5183
:104FE000BDE8F04DFFF74EBE3A2800D2303820F031
:104FF0002002412A01D3A2F13700884201D34FF0A9
:10500000FF3070470FB4084B10B504A902AA0398EB
:1050100000F088F9044602A9002000F025FD204692
:1050200010BC5DF814FB0000695A00087CB504460A
:1050300000201D46164600290BD0491ECDE900412F
:10504000044B6A462946304600F06CF9009A00216C
:1050500011707CBD535A0008490050EAC12018BFA6
:1050600004204A0D18BF40F0010040F2FF72B2EB7D
:10507000515F08BF40F00200012808BF05207047BB
:1050800000487047480000202DE9F0414F1E00EB1A
:10509000C7010446D1E9000115461E4637F0060255
:1050A0000DD02A463346FFF758FC7F1E04EBC7039A
:1050B000D3E90023FFF7AAFB37F00602F1D1022F54
:1050C00025D0042F13D0062F18BFBDE8F0812A4643
:1050D0003346FFF742FCD4E90A23FFF797FB2A4641
:1050E0003346FFF73AFCD4E90823FFF78FFB2A4643
:1050F0003346FFF732FCD4E90623FFF787FB2A4645
:105100003346FFF72AFCD4E90423FFF77FFB2A4646
:105110003346FFF722FCD4E90223FFF777FB2A4648
:105120003346FFF71AFCD4E90023BDE8F041FFF74E
:105130006DBB00000022134610460149FFF7FFBD7A
:105140000000F03FFFF762BB0022134610461146F5
:10515000FFF7F5BD40F2013200204FF0E041FFF7CC
:105160005DBE0000024A00201107FFF757BE000095
:1051700001FDFFFF02E008C8121F08C1002AFAD192
:1051800070477047002001E001C1121F002AFBD1C7
:105190007047000001490860704700004800002087
:1051A0002DE9FF5F82B00021DDE90430020DDDF85A
:1051B00040B0034318D044F61050A2F2FF324243ED
:1051C0001514119801281FD0A5EB0B00401C5FEAB5
:1051D000000A4FF000064E4FDFF83891B0465046B7
:1051E00015D5CAF1000413E0119801244AA301283F
:1051F00001D16FEA0B010298119AC0E90031C0E9B0
:10520000024206B0BDE8F09FCBF10000DFE70446A4
:105210000021404A491842EB0450CDE9001012E049
:10522000E00707D032463B4640464946FFF795FB2C
:105230008046894632463B4610461946FFF78DFBAD
:1052400006460F466410002CEAD1DDE90401DDE9D1
:105250000023BAF1000F06DAFFF77FFB42464B4608
:10526000FFF77BFB05E0FFF76AFD42464B46FFF781
:1052700066FD04460E460022284BFFF73BFC03D890
:105280004FF0FF30014607E00022254B2046314613
:10529000FFF7BCFAFFF7D9FD102409E0002C0ADB68
:1052A0000A220023FFF754FC039B30321A55641E78
:1052B00050EA0102F2D1641C039AC4F111031444B0
:1052C000119A012A03D0012208430DD10AE00843B4
:1052D00004D000204FF0110B119072E7A3EB0B05E7
:1052E0006D1E0DE05B4504DD4FF0000205F1010588
:1052F00004E003DA4FF00002A5F10105002AECD02A
:1053000002981199C0E90231C0E9004579E700002F
:10531000000014400000F03F300000000000F043A7
:105320000000E03F2DE9FF4F95B09B4689460646B9
:1053300000250FE2252877D100242746F84A0121CD
:10534000059400E0044316F8013F203B01FA03F006
:105350001042F7D130782A2811D06FF02F0330781F
:10536000A0F13002092A16D8059A44F0020402EB93
:10537000820203EB42021044761C0590EFE759F8D5
:10538000042B0592002A03DA504244F4005405909D
:1053900044F00204761C30782E2816D116F8010F3E
:1053A00044F004042A280DD06FF02F023078A0F1C9
:1053B0003003092B09D807EB870302EB4303C71817
:1053C000761CF3E759F8047B761C30786C280FD0F4
:1053D00006DC4C2817D068280DD06A2814D104E0C8
:1053E000742810D07A280FD10DE044F400140AE09C
:1053F00044F4801401E044F440147278824202D1F3
:1054000004F58014761C761C307866280BD013DCEB
:10541000582877D009DC002875D04528F6D04628D2
:10542000F4D047281AD19DE118E0632835D06428CC
:1054300079D0652812D195E1702873D008DC6728EF
:10544000F1D069286FD06E280DD06F2806D1B5E055
:1054500073282CD0752875D0782874D05A4617999F
:1054600090476D1C75E1C4F30250022809D003284F
:105470000DD0D9F8001004280DD00D6009F10409F1
:1054800067E1D9F80010EA17C1E90052F6E7D9F848
:1054900000100D80F2E70D70F0E719F8041B8DF88D
:1054A000001000208DF80100EA46012003E059F8C1
:1054B00004AB4FF0FF3061074FF0000102D40DE064
:1054C00008F101018846B9420FDA8045F8DB1AF885
:1054D00008100029F4D108E008F101018846814252
:1054E000FADB1AF808100029F6D105985B46A0EB04
:1054F000080721463846179A00F094FA284400EB32
:10550000080507E04DE029E10DE01AF8010B5A46C5
:1055100017999047B8F10108F7D25B462146384603
:10552000179A13E142E00A220092C4F302524FF0AC
:10553000000A022A08D059F804CB032A4FEAEC717A
:105540000AD00DE029E02AE009F1070121F0070265
:10555000F2E802C1914609E00FFA8CFC4FEAEC71C7
:10556000042A03D14FFA8CFC4FEAEC71002907DAC8
:105570000A460021DCF1000C61EB02012D2202E061
:10558000220504D52B228DF80420012203E0E20736
:1055900001D02022F7E7904659E00A2102E01022CC
:1055A0000DE010214FF0000A00910BE010224FF0A7
:1055B000000A44F004040827009203E008224FF098
:1055C000000A0092C4F30252022A05D059F804CB13
:1055D0000021032A08D009E009F1070121F00702A0
:1055E000F2E802C1914605E01FFA8CFC042A01D1C1
:1055F0000CF0FF0C4FF00008220728D5702806D0C9
:10560000009B83F0100353EA0A0305D00EE040220A
:105610008DF80420012208E05CEA010206D0302265
:105620008DF804208DF8050002229046009B83F03F
:10563000080353EA0A030AD15CEA010201D16207B6
:1056400005D530228DF804204FF001087F1E582820
:1056500004D034A003900EA802900DE036A0F9E724
:1056600053466046009AFFF773FA84460398825CBB
:105670000298401E029002705CEA0100F0D102988C
:1056800006A9081A00F1200A600702D524F4803424
:1056900000E00127574502DDA7EB0A0000E00020EB
:1056A00000EB0A01009005984144401A0590E00380
:1056B00006D45B462146179A059800F0B3F90544D5
:1056C000002706E001A85A46C05D179990476D1C57
:1056D0007F1C4745F6DBE0030CD55B462146179A55
:1056E000059800F09FF9054404E030205A461799C8
:1056F00090476D1C0099481E00900029F5DC08E0D9
:10570000029802995A460078491C029117999047CD
:105710006D1CBAF10001AAF1010AF1DC65E100009B
:105720000928010030313233343536373839616277
:10573000636465660000000030313233343536373B
:1057400038394142434445460000000000F058F912
:105750000544761C307800287FF4ECAD19B028465B
:10576000BDE8F08F620700D4062709F1070222F096
:10577000070CFCE80223E14603F000485FEA080C4E
:1057800002D00FF2702C0DE05FEA045C02D50FF23C
:10579000682C07E05FEAC47C02D00FF2602C01E0C5
:1057A000AFF2700C4FF0FF3823F00043CDF850C03B
:1057B00065280CD006DC452809D046281DD047288E
:1057C0003DD13DE0662818D067287ED138E0002121
:1057D000112F01DB112000E0781CCDE9000106A9A2
:1057E0000EA8FFF7DDFCDDE90F010E9A0391002101
:1057F000009207F1010A04914DE04FF0004000973C
:10580000CDE9011006A90EA8FFF7CAFCDDE90F02D9
:1058100003920E9B11990022DDF80CA000930492D4
:1058200011B9791C00EB010AB7EB0A0004D4C0F1EE
:10583000FF3007F1010A0490AAEB0700019044E051
:10584000012F00DA01270021112F01DD112000E0D6
:105850003846CDE9000106A90EA8FFF7A1FCDDE955
:105860000F010E9A0391002104910092BA4621077C
:105870000CD40399514500DA8A46BAF1010F05DDCF
:10588000009AAAF10101515C302908D0B84202DA2D
:1058900010F1040F06DA0121CDE9011015E0AAF19B
:1058A0000101E9E7002805DC049901440491AAEB11
:1058B000000102E0411C514500DD8A460499401A6E
:1058C000401C01904FF000400290200704D4019842
:1058D000504501DBCDF8048000208DF84F00029880
:1058E0000DF14F07B0F1004F25D02B200E900298FC
:1058F0004FF0020800280CDA404202902D200E9052
:1059000007E00A210298FFF70DF93031029007F8FD
:10591000011DB8F10001A8F10108F2DC029800288D
:10592000EFD1791E0E980870307800F0200040F01A
:10593000450007F8020D12A8C01B00F107081498D3
:10594000007800B1012000EB0A01019801EBE07141
:1059500005984144401A401E0590E00306D45B467A
:105960002146179A059800F05DF8054414980078D0
:1059700018B15A46179990476D1CE00324D55B4631
:105980002146179A059800F04DF805441CE004984C
:10599000002807DBDDE90301884203DD0098405C55
:1059A000179901E0179930205A469047049805F15D
:1059B0000105401C04900198401E019004D12E2046
:1059C0005A46179990476D1CBAF10001AAF1010AD5
:1059D000DDDC05E017F8010B5A46179990476D1C5E
:1059E000B8F10001A8F10108F4DC5B462146179AE2
:1059F0000598ABE62D0000002B0000002000000001
:105A00002DE9F041044600251E461746880404D4BB
:105A100005E039462020B0476D1C641EF9D52846A4
:105A2000BDE8F0812DE9F041044600251E46904670
:105A3000C80301D5302700E02027880404D505E0FD
:105A400041463846B0476D1C641EF9D52846BDE86E
:105A5000F0814A68002A06D00A68531C0B60107057
:105A60004868401E486070470A68531C0B601070FD
:105A7000704700002DE9F041C1F30A52A2F2FF364F
:105A80002F4A304B0D460446142E2FDA002E12DA20
:105A9000FEF7BCFE00221346FFF72CF84CD2002D77
:105AA000A4BF0024254647DA25F00040204318BF54
:105AB000254D41D018E0DFF894C02CFA06F705EA2E
:105AC000070C5CEA040C08BFBDE8F081FEF79EFEFF
:105AD00000221346FFF70EF82ED2002D03DA4FF402
